:020000020000FC
:0C0000000C9436000C9470040C948304E3
:10005C000C94B700040206080A060208000000000F
:10006C0041E24EBF4FEF4DBF06C2CF93DF93CDB7EA
:10007C00DEB72297CDBFDEBF89839A8309811A81AF
:10008C00003061F440E0409318021198802F912FBA
:10009C002296DEBFCDBFDF91CF91089511E0409144
:1000AC001802413029F0119841E04093180205C024
:1000BC00119A40E04093180200C04427409311026B
:1000CC0008E3D8D3E7D300D408E3D4D3E3D3F3D3F2
:1000DC0008E3D0D3DFD308E3CDD3DCD308E0CAD315
:1000EC00D9D301E0C7D3D6D306E0C4D3D3D30EE023
:1000FC00C1D3D0D305E4C5D3CDD30DE6C2D3CAD377
:10010C0005E6BFD3C7D302E7BCD3C4D307E6B9D344
:10011C00C1D305E6B6D3BED30EE6B3D3BBD303E649
:10012C00B0D3B8D309E7ADD3B5D300ECA3D3B2D3D6
:10013C0003E4A7D3AFD301E6A4D3ACD30CE6A1D38D
:10014C00A9D30CE69ED3A6D300E29BD3A3D300E3A2
:10015C0098D3A0D300E395D39DD300E392D39AD345
:10016C0095CF4FB74F93DF93CF9380910C02909123
:10017C000D02019682344FE09407C1F5DF93CF93C3
:10018C00CCE0D2E0442749934883CF91DF91809112
:10019C001402952F89839A8368DF89839A838981D6
:1001AC009A81592F80911002909111028030C1F1E7
:1001BC008517E9F040E040939A0080910E029091EF
:1001CC000F020196823040E0940791F5DF93CF93B4
:1001DC00CEE0D2E0442749934883CF91DF918091C0
:1001EC0010029091110289839A8302C010C025C01D
:1001FC0022D189839A8389819A818093100290936A
:10020C001102809114028030D1F568D038C08093EF
:10021C000C0290930D0280911402803019F42FC0BF
:10022C000C9451018091180280958093180227C07C
:10023C0080930E0290930F0222C080910B028030AB
:10024C0039F0813049F0843059F0853049F10CC0D7
:10025C004FEF40939A0008C0442740939A0004C083
:10026C004AE440939A0000C0839580930B028091DE
:10027C00100280930A0288278093100200C080919C
:10028C0010029091110289839A8351D2CF91DF9100
:10029C004F914FBF189580910A0280931002EFCFB7
:1002AC00A0E0B2E01D912C91103021F02E931D9105
:1002BC000C945801509119025A9550931902A0E0D0
:1002CC00B2E05C9150931202DF93CF93CBE0D2E07B
:1002DC00442749934883CF91DF91D1CF08E3CAD209
:1002EC00D9D2F2D208E3C6D2D5D2E5D208E3C2D233
:1002FC00D1D208E3BFD2CED208E0BCD2CBD201E03F
:10030C00B9D2C8D206E0B6D2C5D20EE0B3D2C2D2B0
:10031C0003E4B7D2BFD205E7B4D2BCD202E7B1D264
:10032C00B9D202E7AED2B6D205E6ABD2B3D20EE664
:10033C00A8D2B0D204E7A5D2ADD200E2A2D2AAD202
:10034C0006E69FD2A7D20CE69CD2A4D20FE699D295
:10035C00A1D20FE696D29ED202E793D29BD200E2B4
:10036C0090D298D240911002405D4A3369F1042F2B
:10037C0088D290D200EC7ED28DD20EE482D28AD278
:10038C0005E67FD287D208E77CD284D204E779D203
:10039C0081D200E276D27ED203E773D27BD204E71D
:1003AC0070D278D20FE66DD275D200E76AD272D2D3
:1003BC0000E267D26FD240911202405D4A33A1F144
:1003CC00042F5FD267D2089501E35BD263D200E3BE
:1003DC0058D260D200EC4ED25DD20EE452D25AD238
:1003EC0005E64FD257D208E74CD254D204E749D293
:1003FC0051D200E246D24ED203E743D24BD204E7AD
:10040C0040D248D20FE63DD245D200E73AD242D292
:10041C0000E237D23FD240911202405D4A3321F0C4
:10042C00042F2FD237D2089501E32BD233D200E31D
:10043C0028D230D20895CF93DF93CDB7DEB7229771
:10044C00CDBFDEBF89839A8309811A81113009F0EF
:10045C0005C00A3019F011E0039505C00130C9F34D
:10046C0011270A9500C0802F912F2296DEBFCDBF99
:10047C00DF91CF9108951127E0E6F0E038E020E01D
:10048C000591003061F009831A833B832C835981D9
:10049C006A817B818C8117D0152F0C944602EAE679
:1004AC00F0E00591003099F109831A833B832C838A
:1004BC0059816A817B818C8106D0152F509319024A
:1004CC000C94570224C0CF93DF93EF93FF93FF92CA
:1004DC000F931F932F933F934F93CDB7DEB728976E
:1004EC00DEBFCDBF59836A837B838C834A8139817C
:1004FC000B812C81E0E0F2E04030B1F1FF240317D6
:10050C00B9F188F00C948A02203011F00FEF3FC043
:10051C001191311769F1A8F4101798F4F41601F140
:10052C00F3940C948E02213009F000E011913117F4
:10053C00F9F038F0101728F0F41691F0F3940C94AD
:10054C009C023293F1902081121759F01193108173
:10055C001217219311F00C94A90211930C94B70269
:10056C00329343950C94BE02301711F030834395AF
:10057C00542F2896DEBFCDBF4F913F912F911F91E5
:10058C000F91FF90FF91EF91DF91CF91089540E192
:10059C004DB940E040939A00442740939B0041E0C2
:1005AC004093910041E24093900040EF40930A0148
:1005BC004FEF47B948B90FEF00BB01B9002701BB9A
:1005CC0002B94FEF47B946E0409369004DB3416023
:1005DC004DBB4DB342604DBBDF93CF93CAE0D2E02D
:1005EC00442749934883CF91DF91DF93CF93CBE09E
:1005FC00D2E0442749934883CF91DF91DF93CF9387
:10060C00CCE0D2E0442749934883CF91DF91DF932C
:10061C00CF93CEE0D2E0442749934883CF91DF912A
:10062C00DF93CF93C0E1D2E0442749934883CF9125
:10063C00DF91DF93CF93C2E1D2E044274993488303
:10064C00CF91DF91DF93CF93C1E1D2E0442749935F
:10065C004883CF91DF91DF93CF93C3E1D2E044275E
:10066C0049934883CF91DF91DF93CF93C4E1D2E0DC
:10067C00442749934883CF91DF91DF93CF93C5E112
:10068C00D2E0442749934883CF91DF91DF93CF93F6
:10069C00C6E1D2E0442749934883CF91DF91DF93A1
:1006AC00CF93C7E1D2E0442749934883CF91DF91A0
:1006BC00DF93CF93C8E1D2E0442749934883CF918D
:1006CC00DF9141E04093150240E04093140241E079
:1006DC0040931802772740E044BD42E045BD41E01D
:1006EC0040936E0078943093100220931102B2E084
:1006FC00A0E05D915093120208E3BCD0CBD0E4D0C3
:10070C0008E3B8D0C7D0D7D008E3B4D0C3D008E33F
:10071C00B1D0C0D008E0AED0BDD001E0ABD0BAD0E3
:10072C0006E0A8D0B7D00EE0A5D0B4D034C0CF939B
:10073C00DF93CDB7DEB72297CDBFDEBF89839A8317
:10074C0009811A8121E031E00F93002703BB0F913F
:10075C00093069F02CF4003009F010C0202F14C0BF
:10076C002F932FEF23BB23E024BB2F9107C02F9394
:10077C002FEF23BB21E024BB2F9100C0301721F0B9
:10078C00220F2F5F3395FACF28B92296DEBFCDBF4B
:10079C00DF91CF9108953FEE11271430E1F33093A0
:1007AC000B014FEF4A95F1F7409109014F704F3013
:1007BC0059F021E00027043039F0542F522349F02E
:1007CC000395220F0C94E103330F339513950C947E
:1007DC00D303133091F10330A1F1402F440F400F9C
:1007EC00410F4F5F1F932F933F935F936F937F93B3
:1007FC008F93109119023091100220911102CDB7F4
:10080C00DEB72497DEBFCDBF49831A833B832C838D
:10081C0059816A817B818C8156DE50931902CDB748
:10082C00DEB72496DEBFCDBF8F917F916F915F9124
:10083C003F912F911F910C94320441E4400F0C9482
:10084C003204103029F0113031F043E20C943204B0
:10085C004AE20C94320440E0409317024A3211F001
:10086C000C94D103809114028095809314020C9403
:10087C00D103FFCF01BB1FD0169A1DD016981BD0E9
:10088C00089501BB179A17D0169A15D0169813D045
:10089C00179808950F93002700BB01BB159A0BD036
:1008AC00169A09D00FB1169807FDF9CF15980FEFCE
:1008BC0000BB0F9108958F939F939FE08CE9019754
:1008CC00F1F79F918F910895F6DFF5DFF4DFF3DFF9
:1008DC00F2DF08954F934FB780911002909113025D
:1008EC0093959130F0F09927909313028030E9F0B2
:1008FC008517D9F04FBF4F9118954F935F934FB712
:10090C0080911002992793959F3FE8F393B194300F
:10091C0021F0803089F0851779F04FBF5F914F91AE
:10092C0018954FBF5F914F91189585E080930B02FE
:10093C004FBF5F914F91189580910B02835080931C
:0A094C000B024FBF5F914F91189509
:00000001FF
